{
  "_format": "hh3-artifact-1",
  "contractName": "MembershipNFT",
  "sourceName": "contracts/MembershipNFT.sol",
  "abi": [
    {
      "inputs": [],
      "stateMutability": "nonpayable",
      "type": "constructor"
    },
    {
      "inputs": [
        {
          "internalType": "address",
          "name": "sender",
          "type": "address"
        },
        {
          "internalType": "uint256",
          "name": "tokenId",
          "type": "uint256"
        },
        {
          "internalType": "address",
          "name": "owner",
          "type": "address"
        }
      ],
      "name": "ERC721IncorrectOwner",
      "type": "error"
    },
    {
      "inputs": [
        {
          "internalType": "address",
          "name": "operator",
          "type": "address"
        },
        {
          "internalType": "uint256",
          "name": "tokenId",
          "type": "uint256"
        }
      ],
      "name": "ERC721InsufficientApproval",
      "type": "error"
    },
    {
      "inputs": [
        {
          "internalType": "address",
          "name": "approver",
          "type": "address"
        }
      ],
      "name": "ERC721InvalidApprover",
      "type": "error"
    },
    {
      "inputs": [
        {
          "internalType": "address",
          "name": "operator",
          "type": "address"
        }
      ],
      "name": "ERC721InvalidOperator",
      "type": "error"
    },
    {
      "inputs": [
        {
          "internalType": "address",
          "name": "owner",
          "type": "address"
        }
      ],
      "name": "ERC721InvalidOwner",
      "type": "error"
    },
    {
      "inputs": [
        {
          "internalType": "address",
          "name": "receiver",
          "type": "address"
        }
      ],
      "name": "ERC721InvalidReceiver",
      "type": "error"
    },
    {
      "inputs": [
        {
          "internalType": "address",
          "name": "sender",
          "type": "address"
        }
      ],
      "name": "ERC721InvalidSender",
      "type": "error"
    },
    {
      "inputs": [
        {
          "internalType": "uint256",
          "name": "tokenId",
          "type": "uint256"
        }
      ],
      "name": "ERC721NonexistentToken",
      "type": "error"
    },
    {
      "inputs": [
        {
          "internalType": "address",
          "name": "owner",
          "type": "address"
        }
      ],
      "name": "OwnableInvalidOwner",
      "type": "error"
    },
    {
      "inputs": [
        {
          "internalType": "address",
          "name": "account",
          "type": "address"
        }
      ],
      "name": "OwnableUnauthorizedAccount",
      "type": "error"
    },
    {
      "anonymous": false,
      "inputs": [
        {
          "indexed": true,
          "internalType": "address",
          "name": "owner",
          "type": "address"
        },
        {
          "indexed": true,
          "internalType": "address",
          "name": "approved",
          "type": "address"
        },
        {
          "indexed": true,
          "internalType": "uint256",
          "name": "tokenId",
          "type": "uint256"
        }
      ],
      "name": "Approval",
      "type": "event"
    },
    {
      "anonymous": false,
      "inputs": [
        {
          "indexed": true,
          "internalType": "address",
          "name": "owner",
          "type": "address"
        },
        {
          "indexed": true,
          "internalType": "address",
          "name": "operator",
          "type": "address"
        },
        {
          "indexed": false,
          "internalType": "bool",
          "name": "approved",
          "type": "bool"
        }
      ],
      "name": "ApprovalForAll",
      "type": "event"
    },
    {
      "anonymous": false,
      "inputs": [
        {
          "indexed": true,
          "internalType": "address",
          "name": "previousOwner",
          "type": "address"
        },
        {
          "indexed": true,
          "internalType": "address",
          "name": "newOwner",
          "type": "address"
        }
      ],
      "name": "OwnershipTransferred",
      "type": "event"
    },
    {
      "anonymous": false,
      "inputs": [
        {
          "indexed": true,
          "internalType": "address",
          "name": "from",
          "type": "address"
        },
        {
          "indexed": true,
          "internalType": "address",
          "name": "to",
          "type": "address"
        },
        {
          "indexed": true,
          "internalType": "uint256",
          "name": "tokenId",
          "type": "uint256"
        }
      ],
      "name": "Transfer",
      "type": "event"
    },
    {
      "inputs": [
        {
          "internalType": "uint256",
          "name": "planId",
          "type": "uint256"
        }
      ],
      "name": "activatePlan",
      "outputs": [],
      "stateMutability": "nonpayable",
      "type": "function"
    },
    {
      "inputs": [
        {
          "internalType": "address",
          "name": "to",
          "type": "address"
        },
        {
          "internalType": "uint256",
          "name": "tokenId",
          "type": "uint256"
        }
      ],
      "name": "approve",
      "outputs": [],
      "stateMutability": "nonpayable",
      "type": "function"
    },
    {
      "inputs": [
        {
          "internalType": "address",
          "name": "owner",
          "type": "address"
        }
      ],
      "name": "balanceOf",
      "outputs": [
        {
          "internalType": "uint256",
          "name": "",
          "type": "uint256"
        }
      ],
      "stateMutability": "view",
      "type": "function"
    },
    {
      "inputs": [
        {
          "internalType": "uint256",
          "name": "_planId",
          "type": "uint256"
        }
      ],
      "name": "buyMembership",
      "outputs": [],
      "stateMutability": "payable",
      "type": "function"
    },
    {
      "inputs": [
        {
          "internalType": "uint256",
          "name": "tokenId",
          "type": "uint256"
        }
      ],
      "name": "cancelMembership",
      "outputs": [],
      "stateMutability": "nonpayable",
      "type": "function"
    },
    {
      "inputs": [
        {
          "internalType": "string",
          "name": "_name",
          "type": "string"
        },
        {
          "internalType": "uint256",
          "name": "_durationDays",
          "type": "uint256"
        },
        {
          "internalType": "uint256",
          "name": "_price",
          "type": "uint256"
        }
      ],
      "name": "createPlan",
      "outputs": [],
      "stateMutability": "nonpayable",
      "type": "function"
    },
    {
      "inputs": [
        {
          "internalType": "uint256",
          "name": "planId",
          "type": "uint256"
        }
      ],
      "name": "deactivatePlan",
      "outputs": [],
      "stateMutability": "nonpayable",
      "type": "function"
    },
    {
      "inputs": [
        {
          "internalType": "uint256",
          "name": "tokenId",
          "type": "uint256"
        },
        {
          "internalType": "uint256",
          "name": "extraDays",
          "type": "uint256"
        }
      ],
      "name": "extendMembership",
      "outputs": [],
      "stateMutability": "nonpayable",
      "type": "function"
    },
    {
      "inputs": [
        {
          "internalType": "uint256",
          "name": "tokenId",
          "type": "uint256"
        }
      ],
      "name": "getApproved",
      "outputs": [
        {
          "internalType": "address",
          "name": "",
          "type": "address"
        }
      ],
      "stateMutability": "view",
      "type": "function"
    },
    {
      "inputs": [],
      "name": "getContractBalance",
      "outputs": [
        {
          "internalType": "uint256",
          "name": "",
          "type": "uint256"
        }
      ],
      "stateMutability": "view",
      "type": "function"
    },
    {
      "inputs": [
        {
          "internalType": "uint256",
          "name": "tokenId",
          "type": "uint256"
        }
      ],
      "name": "getMembership",
      "outputs": [
        {
          "internalType": "uint256",
          "name": "",
          "type": "uint256"
        },
        {
          "internalType": "uint256",
          "name": "",
          "type": "uint256"
        },
        {
          "internalType": "uint256",
          "name": "",
          "type": "uint256"
        }
      ],
      "stateMutability": "view",
      "type": "function"
    },
    {
      "inputs": [],
      "name": "getMyMemberships",
      "outputs": [
        {
          "internalType": "uint256[]",
          "name": "",
          "type": "uint256[]"
        }
      ],
      "stateMutability": "view",
      "type": "function"
    },
    {
      "inputs": [],
      "name": "getTotalMemberships",
      "outputs": [
        {
          "internalType": "uint256",
          "name": "",
          "type": "uint256"
        }
      ],
      "stateMutability": "view",
      "type": "function"
    },
    {
      "inputs": [
        {
          "internalType": "address",
          "name": "owner",
          "type": "address"
        },
        {
          "internalType": "address",
          "name": "operator",
          "type": "address"
        }
      ],
      "name": "isApprovedForAll",
      "outputs": [
        {
          "internalType": "bool",
          "name": "",
          "type": "bool"
        }
      ],
      "stateMutability": "view",
      "type": "function"
    },
    {
      "inputs": [
        {
          "internalType": "uint256",
          "name": "tokenId",
          "type": "uint256"
        }
      ],
      "name": "isMembershipValid",
      "outputs": [
        {
          "internalType": "bool",
          "name": "",
          "type": "bool"
        }
      ],
      "stateMutability": "view",
      "type": "function"
    },
    {
      "inputs": [
        {
          "internalType": "uint256",
          "name": "",
          "type": "uint256"
        }
      ],
      "name": "memberships",
      "outputs": [
        {
          "internalType": "uint256",
          "name": "planId",
          "type": "uint256"
        },
        {
          "internalType": "uint256",
          "name": "startDate",
          "type": "uint256"
        },
        {
          "internalType": "uint256",
          "name": "endDate",
          "type": "uint256"
        }
      ],
      "stateMutability": "view",
      "type": "function"
    },
    {
      "inputs": [],
      "name": "name",
      "outputs": [
        {
          "internalType": "string",
          "name": "",
          "type": "string"
        }
      ],
      "stateMutability": "view",
      "type": "function"
    },
    {
      "inputs": [],
      "name": "nextPlanId",
      "outputs": [
        {
          "internalType": "uint256",
          "name": "",
          "type": "uint256"
        }
      ],
      "stateMutability": "view",
      "type": "function"
    },
    {
      "inputs": [],
      "name": "owner",
      "outputs": [
        {
          "internalType": "address",
          "name": "",
          "type": "address"
        }
      ],
      "stateMutability": "view",
      "type": "function"
    },
    {
      "inputs": [
        {
          "internalType": "uint256",
          "name": "tokenId",
          "type": "uint256"
        }
      ],
      "name": "ownerOf",
      "outputs": [
        {
          "internalType": "address",
          "name": "",
          "type": "address"
        }
      ],
      "stateMutability": "view",
      "type": "function"
    },
    {
      "inputs": [
        {
          "internalType": "uint256",
          "name": "",
          "type": "uint256"
        }
      ],
      "name": "plans",
      "outputs": [
        {
          "internalType": "string",
          "name": "name",
          "type": "string"
        },
        {
          "internalType": "uint256",
          "name": "durationDays",
          "type": "uint256"
        },
        {
          "internalType": "uint256",
          "name": "price",
          "type": "uint256"
        },
        {
          "internalType": "bool",
          "name": "active",
          "type": "bool"
        }
      ],
      "stateMutability": "view",
      "type": "function"
    },
    {
      "inputs": [],
      "name": "renounceOwnership",
      "outputs": [],
      "stateMutability": "nonpayable",
      "type": "function"
    },
    {
      "inputs": [
        {
          "internalType": "address",
          "name": "from",
          "type": "address"
        },
        {
          "internalType": "address",
          "name": "to",
          "type": "address"
        },
        {
          "internalType": "uint256",
          "name": "tokenId",
          "type": "uint256"
        }
      ],
      "name": "safeTransferFrom",
      "outputs": [],
      "stateMutability": "nonpayable",
      "type": "function"
    },
    {
      "inputs": [
        {
          "internalType": "address",
          "name": "from",
          "type": "address"
        },
        {
          "internalType": "address",
          "name": "to",
          "type": "address"
        },
        {
          "internalType": "uint256",
          "name": "tokenId",
          "type": "uint256"
        },
        {
          "internalType": "bytes",
          "name": "data",
          "type": "bytes"
        }
      ],
      "name": "safeTransferFrom",
      "outputs": [],
      "stateMutability": "nonpayable",
      "type": "function"
    },
    {
      "inputs": [
        {
          "internalType": "address",
          "name": "operator",
          "type": "address"
        },
        {
          "internalType": "bool",
          "name": "approved",
          "type": "bool"
        }
      ],
      "name": "setApprovalForAll",
      "outputs": [],
      "stateMutability": "nonpayable",
      "type": "function"
    },
    {
      "inputs": [
        {
          "internalType": "bytes4",
          "name": "interfaceId",
          "type": "bytes4"
        }
      ],
      "name": "supportsInterface",
      "outputs": [
        {
          "internalType": "bool",
          "name": "",
          "type": "bool"
        }
      ],
      "stateMutability": "view",
      "type": "function"
    },
    {
      "inputs": [],
      "name": "symbol",
      "outputs": [
        {
          "internalType": "string",
          "name": "",
          "type": "string"
        }
      ],
      "stateMutability": "view",
      "type": "function"
    },
    {
      "inputs": [
        {
          "internalType": "uint256",
          "name": "tokenId",
          "type": "uint256"
        }
      ],
      "name": "tokenURI",
      "outputs": [
        {
          "internalType": "string",
          "name": "",
          "type": "string"
        }
      ],
      "stateMutability": "view",
      "type": "function"
    },
    {
      "inputs": [
        {
          "internalType": "address",
          "name": "from",
          "type": "address"
        },
        {
          "internalType": "address",
          "name": "to",
          "type": "address"
        },
        {
          "internalType": "uint256",
          "name": "tokenId",
          "type": "uint256"
        }
      ],
      "name": "transferFrom",
      "outputs": [],
      "stateMutability": "nonpayable",
      "type": "function"
    },
    {
      "inputs": [
        {
          "internalType": "address",
          "name": "newOwner",
          "type": "address"
        }
      ],
      "name": "transferOwnership",
      "outputs": [],
      "stateMutability": "nonpayable",
      "type": "function"
    },
    {
      "inputs": [],
      "name": "withdraw",
      "outputs": [],
      "stateMutability": "nonpayable",
      "type": "function"
    }
  ],
  "bytecode": "0x608060405234801561000f575f5ffd5b50336040518060400160405280601481526020017f436861696e50617373204d656d626572736869700000000000000000000000008152506040518060400160405280600381526020017f43504d0000000000000000000000000000000000000000000000000000000000815250815f908161008b91906105cc565b50806001908161009b91906105cc565b5050505f73ffffffffffffffffffffffffffffffffffffffff168173ffffffffffffffffffffffffffffffffffffffff160361010e575f6040517f1e4fbdf700000000000000000000000000000000000000000000000000000000815260040161010591906106da565b60405180910390fd5b61011d816102cc60201b60201c565b5060405180608001604052806040518060400160405280600681526020017f42617369636f00000000000000000000000000000000000000000000000000008152508152602001601e8152602001655af3107a400081526020016001151581525060085f600a5481526020019081526020015f205f820151815f0190816101a491906105cc565b5060208201518160010155604082015181600201556060820151816003015f6101000a81548160ff021916908315150217905550905050600a5f8154809291906101ed90610720565b919050555060405180608001604052806040518060400160405280600781526020017f5072656d69756d000000000000000000000000000000000000000000000000008152508152602001605a8152602001660110d9316ec00081526020016001151581525060085f600a5481526020019081526020015f205f820151815f01908161027991906105cc565b5060208201518160010155604082015181600201556060820151816003015f6101000a81548160ff021916908315150217905550905050600a5f8154809291906102c290610720565b9190505550610767565b5f60065f9054906101000a900473ffffffffffffffffffffffffffffffffffffffff1690508160065f6101000a81548173ffffffffffffffffffffffffffffffffffffffff021916908373ffffffffffffffffffffffffffffffffffffffff1602179055508173ffffffffffffffffffffffffffffffffffffffff168173ffffffffffffffffffffffffffffffffffffffff167f8be0079c531659141344cd1fd0a4f28419497f9722a3daafe3b4186f6b6457e060405160405180910390a35050565b5f81519050919050565b7f4e487b71000000000000000000000000000000000000000000000000000000005f52604160045260245ffd5b7f4e487b71000000000000000000000000000000000000000000000000000000005f52602260045260245ffd5b5f600282049050600182168061040a57607f821691505b60208210810361041d5761041c6103c6565b5b50919050565b5f819050815f5260205f209050919050565b5f6020601f8301049050919050565b5f82821b905092915050565b5f6008830261047f7fffffffffffffffffffffffffffffffffffffffffffffffffffffffffffffffff82610444565b6104898683610444565b95508019841693508086168417925050509392505050565b5f819050919050565b5f819050919050565b5f6104cd6104c86104c3846104a1565b6104aa565b6104a1565b9050919050565b5f819050919050565b6104e6836104b3565b6104fa6104f2826104d4565b848454610450565b825550505050565b5f5f905090565b610511610502565b61051c8184846104dd565b505050565b5b8181101561053f576105345f82610509565b600181019050610522565b5050565b601f8211156105845761055581610423565b61055e84610435565b8101602085101561056d578190505b61058161057985610435565b830182610521565b50505b505050565b5f82821c905092915050565b5f6105a45f1984600802610589565b1980831691505092915050565b5f6105bc8383610595565b9150826002028217905092915050565b6105d58261038f565b67ffffffffffffffff8111156105ee576105ed610399565b5b6105f882546103f3565b610603828285610543565b5f60209050601f831160018114610634575f8415610622578287015190505b61062c85826105b1565b865550610693565b601f19841661064286610423565b5f5b8281101561066957848901518255600182019150602085019450602081019050610644565b868310156106865784890151610682601f891682610595565b8355505b6001600288020188555050505b505050505050565b5f73ffffffffffffffffffffffffffffffffffffffff82169050919050565b5f6106c48261069b565b9050919050565b6106d4816106ba565b82525050565b5f6020820190506106ed5f8301846106cb565b92915050565b7f4e487b71000000000000000000000000000000000000000000000000000000005f52601160045260245ffd5b5f61072a826104a1565b91507fffffffffffffffffffffffffffffffffffffffffffffffffffffffffffffffff820361075c5761075b6106f3565b5b600182019050919050565b6131e7806107745f395ff3fe6080604052600436106101d7575f3560e01c806370a0823111610101578063b162061611610094578063e57147ef11610063578063e57147ef14610698578063e985e9c5146106d4578063eb2fd73514610710578063f2fde38b14610738576101d7565b8063b1620616146105cd578063b88d4fde1461060c578063c87b56dd14610634578063d4ea9e6214610670576101d7565b806395d89b41116100d057806395d89b4114610537578063a087c71a14610561578063a22cb46514610589578063a4323128146105b1576101d7565b806370a0823114610493578063715018a6146104cf57806389def320146104e55780638da5cb5b1461050d576101d7565b80633ccfd60b116101795780636174bc63116101485780636174bc63146103db5780636352211e14610403578063684de67a1461043f5780636f9fb98a14610469576101d7565b80633ccfd60b1461034957806342842e0e1461035f57806351d2dfd3146103875780635f8d26b2146103b1576101d7565b8063095ea7b3116101b5578063095ea7b31461027d57806323b872dd146102a5578063321621d7146102cd57806338fbf2c61461030b576101d7565b806301ffc9a7146101db57806306fdde0314610217578063081812fc14610241575b5f5ffd5b3480156101e6575f5ffd5b5061020160048036038101906101fc9190612338565b610760565b60405161020e919061237d565b60405180910390f35b348015610222575f5ffd5b5061022b610841565b6040516102389190612406565b60405180910390f35b34801561024c575f5ffd5b5061026760048036038101906102629190612459565b6108d0565b60405161027491906124c3565b60405180910390f35b348015610288575f5ffd5b506102a3600480360381019061029e9190612506565b6108eb565b005b3480156102b0575f5ffd5b506102cb60048036038101906102c69190612544565b610901565b005b3480156102d8575f5ffd5b506102f360048036038101906102ee9190612459565b610a00565b604051610302939291906125a3565b60405180910390f35b348015610316575f5ffd5b50610331600480360381019061032c9190612459565b610a26565b604051610340939291906125a3565b60405180910390f35b348015610354575f5ffd5b5061035d610a81565b005b34801561036a575f5ffd5b5061038560048036038101906103809190612544565b610b1d565b005b348015610392575f5ffd5b5061039b610b3c565b6040516103a8919061268f565b60405180910390f35b3480156103bc575f5ffd5b506103c5610c2a565b6040516103d291906126af565b60405180910390f35b3480156103e6575f5ffd5b5061040160048036038101906103fc9190612459565b610c30565b005b34801561040e575f5ffd5b5061042960048036038101906104249190612459565b610c66565b60405161043691906124c3565b60405180910390f35b34801561044a575f5ffd5b50610453610c77565b60405161046091906126af565b60405180910390f35b348015610474575f5ffd5b5061047d610c80565b60405161048a91906126af565b60405180910390f35b34801561049e575f5ffd5b506104b960048036038101906104b491906126c8565b610c87565b6040516104c691906126af565b60405180910390f35b3480156104da575f5ffd5b506104e3610d3d565b005b3480156104f0575f5ffd5b5061050b60048036038101906105069190612459565b610d50565b005b348015610518575f5ffd5b50610521610d74565b60405161052e91906124c3565b60405180910390f35b348015610542575f5ffd5b5061054b610d9c565b6040516105589190612406565b60405180910390f35b34801561056c575f5ffd5b50610587600480360381019061058291906126f3565b610e2c565b005b348015610594575f5ffd5b506105af60048036038101906105aa919061275b565b610e70565b005b6105cb60048036038101906105c69190612459565b610e86565b005b3480156105d8575f5ffd5b506105f360048036038101906105ee9190612459565b611081565b6040516106039493929190612799565b60405180910390f35b348015610617575f5ffd5b50610632600480360381019061062d919061290f565b61113f565b005b34801561063f575f5ffd5b5061065a60048036038101906106559190612459565b611164565b6040516106679190612406565b60405180910390f35b34801561067b575f5ffd5b5061069660048036038101906106919190612459565b6111ca565b005b3480156106a3575f5ffd5b506106be60048036038101906106b99190612459565b611201565b6040516106cb919061237d565b60405180910390f35b3480156106df575f5ffd5b506106fa60048036038101906106f5919061298f565b611221565b604051610707919061237d565b60405180910390f35b34801561071b575f5ffd5b5061073660048036038101906107319190612a6b565b6112af565b005b348015610743575f5ffd5b5061075e600480360381019061075991906126c8565b611354565b005b5f7f80ac58cd000000000000000000000000000000000000000000000000000000007bffffffffffffffffffffffffffffffffffffffffffffffffffffffff1916827bffffffffffffffffffffffffffffffffffffffffffffffffffffffff1916148061082a57507f5b5e139f000000000000000000000000000000000000000000000000000000007bffffffffffffffffffffffffffffffffffffffffffffffffffffffff1916827bffffffffffffffffffffffffffffffffffffffffffffffffffffffff1916145b8061083a5750610839826113d8565b5b9050919050565b60605f805461084f90612b04565b80601f016020809104026020016040519081016040528092919081815260200182805461087b90612b04565b80156108c65780601f1061089d576101008083540402835291602001916108c6565b820191905f5260205f20905b8154815290600101906020018083116108a957829003601f168201915b5050505050905090565b5f6108da82611441565b506108e4826114c7565b9050919050565b6108fd82826108f8611500565b611507565b5050565b5f73ffffffffffffffffffffffffffffffffffffffff168273ffffffffffffffffffffffffffffffffffffffff1603610971575f6040517f64a0ae9200000000000000000000000000000000000000000000000000000000815260040161096891906124c3565b60405180910390fd5b5f610984838361097f611500565b611519565b90508373ffffffffffffffffffffffffffffffffffffffff168173ffffffffffffffffffffffffffffffffffffffff16146109fa578382826040517f64283d7b0000000000000000000000000000000000000000000000000000000081526004016109f193929190612b34565b60405180910390fd5b50505050565b6009602052805f5260405f205f91509050805f0154908060010154908060020154905083565b5f5f5f5f60095f8681526020019081526020015f206040518060600160405290815f8201548152602001600182015481526020016002820154815250509050805f015181602001518260400151935093509350509193909250565b610a89611724565b5f4790505f8111610acf576040517f08c379a0000000000000000000000000000000000000000000000000000000008152600401610ac690612bb3565b60405180910390fd5b610ad7610d74565b73ffffffffffffffffffffffffffffffffffffffff166108fc8290811502906040515f60405180830381858888f19350505050158015610b19573d5f5f3e3d5ffd5b5050565b610b3783838360405180602001604052805f81525061113f565b505050565b60605f610b4833610c87565b90505f8167ffffffffffffffff811115610b6557610b646127eb565b5b604051908082528060200260200182016040528015610b935781602001602082028036833780820191505090505b5090505f5f90505f5f90505b600754811015610c20573373ffffffffffffffffffffffffffffffffffffffff16610bc982610c66565b73ffffffffffffffffffffffffffffffffffffffff1603610c135780838381518110610bf857610bf7612bd1565b5b6020026020010181815250508180610c0f90612c2b565b9250505b8080600101915050610b9f565b5081935050505090565b600a5481565b610c38611724565b5f60085f8381526020019081526020015f206003015f6101000a81548160ff02191690831515021790555050565b5f610c7082611441565b9050919050565b5f600754905090565b5f47905090565b5f5f73ffffffffffffffffffffffffffffffffffffffff168273ffffffffffffffffffffffffffffffffffffffff1603610cf8575f6040517f89c62b64000000000000000000000000000000000000000000000000000000008152600401610cef91906124c3565b60405180910390fd5b60035f8373ffffffffffffffffffffffffffffffffffffffff1673ffffffffffffffffffffffffffffffffffffffff1681526020019081526020015f20549050919050565b610d45611724565b610d4e5f6117ab565b565b610d58611724565b4260095f8381526020019081526020015f206002018190555050565b5f60065f9054906101000a900473ffffffffffffffffffffffffffffffffffffffff16905090565b606060018054610dab90612b04565b80601f0160208091040260200160405190810160405280929190818152602001828054610dd790612b04565b8015610e225780601f10610df957610100808354040283529160200191610e22565b820191905f5260205f20905b815481529060010190602001808311610e0557829003601f168201915b5050505050905090565b610e34611724565b6201518081610e439190612c72565b60095f8481526020019081526020015f206002015f828254610e659190612cb3565b925050819055505050565b610e82610e7b611500565b838361186e565b5050565b5f60085f8381526020019081526020015f206040518060800160405290815f82018054610eb290612b04565b80601f0160208091040260200160405190810160405280929190818152602001828054610ede90612b04565b8015610f295780601f10610f0057610100808354040283529160200191610f29565b820191905f5260205f20905b815481529060010190602001808311610f0c57829003601f168201915b505050505081526020016001820154815260200160028201548152602001600382015f9054906101000a900460ff16151515158152505090508060600151610fa6576040517f08c379a0000000000000000000000000000000000000000000000000000000008152600401610f9d90612d30565b60405180910390fd5b8060400151341015610fed576040517f08c379a0000000000000000000000000000000000000000000000000000000008152600401610fe490612d98565b60405180910390fd5b5f6007549050610ffd3382611a47565b60405180606001604052808481526020014281526020016201518084602001516110279190612c72565b426110329190612cb3565b81525060095f8381526020019081526020015f205f820151815f0155602082015181600101556040820151816002015590505060075f81548092919061107790612c2b565b9190505550505050565b6008602052805f5260405f205f91509050805f0180546110a090612b04565b80601f01602080910402602001604051908101604052809291908181526020018280546110cc90612b04565b80156111175780601f106110ee57610100808354040283529160200191611117565b820191905f5260205f20905b8154815290600101906020018083116110fa57829003601f168201915b505050505090806001015490806002015490806003015f9054906101000a900460ff16905084565b61114a848484610901565b61115e611155611500565b85858585611a64565b50505050565b606061116f82611441565b505f611179611c10565b90505f8151116111975760405180602001604052805f8152506111c2565b806111a184611c26565b6040516020016111b2929190612df0565b6040516020818303038152906040525b915050919050565b6111d2611724565b600160085f8381526020019081526020015f206003015f6101000a81548160ff02191690831515021790555050565b5f60095f8381526020019081526020015f20600201544211159050919050565b5f60055f8473ffffffffffffffffffffffffffffffffffffffff1673ffffffffffffffffffffffffffffffffffffffff1681526020019081526020015f205f8373ffffffffffffffffffffffffffffffffffffffff1673ffffffffffffffffffffffffffffffffffffffff1681526020019081526020015f205f9054906101000a900460ff16905092915050565b6112b7611724565b60405180608001604052808481526020018381526020018281526020016001151581525060085f600a5481526020019081526020015f205f820151815f0190816113019190612fb3565b5060208201518160010155604082015181600201556060820151816003015f6101000a81548160ff021916908315150217905550905050600a5f81548092919061134a90612c2b565b9190505550505050565b61135c611724565b5f73ffffffffffffffffffffffffffffffffffffffff168173ffffffffffffffffffffffffffffffffffffffff16036113cc575f6040517f1e4fbdf70000000000000000000000000000000000000000000000000000000081526004016113c391906124c3565b60405180910390fd5b6113d5816117ab565b50565b5f7f01ffc9a7000000000000000000000000000000000000000000000000000000007bffffffffffffffffffffffffffffffffffffffffffffffffffffffff1916827bffffffffffffffffffffffffffffffffffffffffffffffffffffffff1916149050919050565b5f5f61144c83611cf0565b90505f73ffffffffffffffffffffffffffffffffffffffff168173ffffffffffffffffffffffffffffffffffffffff16036114be57826040517f7e2732890000000000000000000000000000000000000000000000000000000081526004016114b591906126af565b60405180910390fd5b80915050919050565b5f60045f8381526020019081526020015f205f9054906101000a900473ffffffffffffffffffffffffffffffffffffffff169050919050565b5f33905090565b6115148383836001611d29565b505050565b5f5f61152484611cf0565b90505f73ffffffffffffffffffffffffffffffffffffffff168373ffffffffffffffffffffffffffffffffffffffff161461156557611564818486611ee8565b5b5f73ffffffffffffffffffffffffffffffffffffffff168173ffffffffffffffffffffffffffffffffffffffff16146115f0576115a45f855f5f611d29565b600160035f8373ffffffffffffffffffffffffffffffffffffffff1673ffffffffffffffffffffffffffffffffffffffff1681526020019081526020015f205f82825403925050819055505b5f73ffffffffffffffffffffffffffffffffffffffff168573ffffffffffffffffffffffffffffffffffffffff161461166f57600160035f8773ffffffffffffffffffffffffffffffffffffffff1673ffffffffffffffffffffffffffffffffffffffff1681526020019081526020015f205f82825401925050819055505b8460025f8681526020019081526020015f205f6101000a81548173ffffffffffffffffffffffffffffffffffffffff021916908373ffffffffffffffffffffffffffffffffffffffff160217905550838573ffffffffffffffffffffffffffffffffffffffff168273ffffffffffffffffffffffffffffffffffffffff167fddf252ad1be2c89b69c2b068fc378daa952ba7f163c4a11628f55a4df523b3ef60405160405180910390a4809150509392505050565b61172c611500565b73ffffffffffffffffffffffffffffffffffffffff1661174a610d74565b73ffffffffffffffffffffffffffffffffffffffff16146117a95761176d611500565b6040517f118cdaa70000000000000000000000000000000000000000000000000000000081526004016117a091906124c3565b60405180910390fd5b565b5f60065f9054906101000a900473ffffffffffffffffffffffffffffffffffffffff1690508160065f6101000a81548173ffffffffffffffffffffffffffffffffffffffff021916908373ffffffffffffffffffffffffffffffffffffffff1602179055508173ffffffffffffffffffffffffffffffffffffffff168173ffffffffffffffffffffffffffffffffffffffff167f8be0079c531659141344cd1fd0a4f28419497f9722a3daafe3b4186f6b6457e060405160405180910390a35050565b5f73ffffffffffffffffffffffffffffffffffffffff168373ffffffffffffffffffffffffffffffffffffffff16036118de575f6040517fa9fbf51f0000000000000000000000000000000000000000000000000000000081526004016118d591906124c3565b60405180910390fd5b5f73ffffffffffffffffffffffffffffffffffffffff168273ffffffffffffffffffffffffffffffffffffffff160361194e57816040517f5b08ba1800000000000000000000000000000000000000000000000000000000815260040161194591906124c3565b60405180910390fd5b8060055f8573ffffffffffffffffffffffffffffffffffffffff1673ffffffffffffffffffffffffffffffffffffffff1681526020019081526020015f205f8473ffffffffffffffffffffffffffffffffffffffff1673ffffffffffffffffffffffffffffffffffffffff1681526020019081526020015f205f6101000a81548160ff0219169083151502179055508173ffffffffffffffffffffffffffffffffffffffff168373ffffffffffffffffffffffffffffffffffffffff167f17307eab39ab6107e8899845ad3d59bd9653f200f220920489ca2b5937696c3183604051611a3a919061237d565b60405180910390a3505050565b611a60828260405180602001604052805f815250611fab565b5050565b5f8373ffffffffffffffffffffffffffffffffffffffff163b1115611c09578273ffffffffffffffffffffffffffffffffffffffff1663150b7a02868685856040518563ffffffff1660e01b8152600401611ac294939291906130d4565b6020604051808303815f875af1925050508015611afd57506040513d601f19601f82011682018060405250810190611afa9190613132565b60015b611b7e573d805f8114611b2b576040519150601f19603f3d011682016040523d82523d5f602084013e611b30565b606091505b505f815103611b7657836040517f64a0ae92000000000000000000000000000000000000000000000000000000008152600401611b6d91906124c3565b60405180910390fd5b805160208201fd5b63150b7a0260e01b7bffffffffffffffffffffffffffffffffffffffffffffffffffffffff1916817bffffffffffffffffffffffffffffffffffffffffffffffffffffffff191614611c0757836040517f64a0ae92000000000000000000000000000000000000000000000000000000008152600401611bfe91906124c3565b60405180910390fd5b505b5050505050565b606060405180602001604052805f815250905090565b60605f6001611c3484611fce565b0190505f8167ffffffffffffffff811115611c5257611c516127eb565b5b6040519080825280601f01601f191660200182016040528015611c845781602001600182028036833780820191505090505b5090505f82602083010190505b600115611ce5578080600190039150507f3031323334353637383961626364656600000000000000000000000000000000600a86061a8153600a8581611cda57611cd961315d565b5b0494505f8503611c91575b819350505050919050565b5f60025f8381526020019081526020015f205f9054906101000a900473ffffffffffffffffffffffffffffffffffffffff169050919050565b8080611d6157505f73ffffffffffffffffffffffffffffffffffffffff168273ffffffffffffffffffffffffffffffffffffffff1614155b15611e93575f611d7084611441565b90505f73ffffffffffffffffffffffffffffffffffffffff168373ffffffffffffffffffffffffffffffffffffffff1614158015611dda57508273ffffffffffffffffffffffffffffffffffffffff168173ffffffffffffffffffffffffffffffffffffffff1614155b8015611ded5750611deb8184611221565b155b15611e2f57826040517fa9fbf51f000000000000000000000000000000000000000000000000000000008152600401611e2691906124c3565b60405180910390fd5b8115611e9157838573ffffffffffffffffffffffffffffffffffffffff168273ffffffffffffffffffffffffffffffffffffffff167f8c5be1e5ebec7d5bd14f71427d1e84f3dd0314c0f7b2291e5b200ac8c7c3b92560405160405180910390a45b505b8360045f8581526020019081526020015f205f6101000a81548173ffffffffffffffffffffffffffffffffffffffff021916908373ffffffffffffffffffffffffffffffffffffffff16021790555050505050565b611ef383838361211f565b611fa6575f73ffffffffffffffffffffffffffffffffffffffff168373ffffffffffffffffffffffffffffffffffffffff1603611f6757806040517f7e273289000000000000000000000000000000000000000000000000000000008152600401611f5e91906126af565b60405180910390fd5b81816040517f177e802f000000000000000000000000000000000000000000000000000000008152600401611f9d92919061318a565b60405180910390fd5b505050565b611fb583836121df565b611fc9611fc0611500565b5f858585611a64565b505050565b5f5f5f90507a184f03e93ff9f4daa797ed6e38ed64bf6a1f010000000000000000831061202a577a184f03e93ff9f4daa797ed6e38ed64bf6a1f01000000000000000083816120205761201f61315d565b5b0492506040810190505b6d04ee2d6d415b85acef81000000008310612067576d04ee2d6d415b85acef8100000000838161205d5761205c61315d565b5b0492506020810190505b662386f26fc10000831061209657662386f26fc10000838161208c5761208b61315d565b5b0492506010810190505b6305f5e10083106120bf576305f5e10083816120b5576120b461315d565b5b0492506008810190505b61271083106120e45761271083816120da576120d961315d565b5b0492506004810190505b6064831061210757606483816120fd576120fc61315d565b5b0492506002810190505b600a8310612116576001810190505b80915050919050565b5f5f73ffffffffffffffffffffffffffffffffffffffff168373ffffffffffffffffffffffffffffffffffffffff16141580156121d657508273ffffffffffffffffffffffffffffffffffffffff168473ffffffffffffffffffffffffffffffffffffffff16148061219757506121968484611221565b5b806121d557508273ffffffffffffffffffffffffffffffffffffffff166121bd836114c7565b73ffffffffffffffffffffffffffffffffffffffff16145b5b90509392505050565b5f73ffffffffffffffffffffffffffffffffffffffff168273ffffffffffffffffffffffffffffffffffffffff160361224f575f6040517f64a0ae9200000000000000000000000000000000000000000000000000000000815260040161224691906124c3565b60405180910390fd5b5f61225b83835f611519565b90505f73ffffffffffffffffffffffffffffffffffffffff168173ffffffffffffffffffffffffffffffffffffffff16146122cd575f6040517f73c6ac6e0000000000000000000000000000000000000000000000000000000081526004016122c491906124c3565b60405180910390fd5b505050565b5f604051905090565b5f5ffd5b5f5ffd5b5f7fffffffff0000000000000000000000000000000000000000000000000000000082169050919050565b612317816122e3565b8114612321575f5ffd5b50565b5f813590506123328161230e565b92915050565b5f6020828403121561234d5761234c6122db565b5b5f61235a84828501612324565b91505092915050565b5f8115159050919050565b61237781612363565b82525050565b5f6020820190506123905f83018461236e565b92915050565b5f81519050919050565b5f82825260208201905092915050565b8281835e5f83830152505050565b5f601f19601f8301169050919050565b5f6123d882612396565b6123e281856123a0565b93506123f28185602086016123b0565b6123fb816123be565b840191505092915050565b5f6020820190508181035f83015261241e81846123ce565b905092915050565b5f819050919050565b61243881612426565b8114612442575f5ffd5b50565b5f813590506124538161242f565b92915050565b5f6020828403121561246e5761246d6122db565b5b5f61247b84828501612445565b91505092915050565b5f73ffffffffffffffffffffffffffffffffffffffff82169050919050565b5f6124ad82612484565b9050919050565b6124bd816124a3565b82525050565b5f6020820190506124d65f8301846124b4565b92915050565b6124e5816124a3565b81146124ef575f5ffd5b50565b5f81359050612500816124dc565b92915050565b5f5f6040838503121561251c5761251b6122db565b5b5f612529858286016124f2565b925050602061253a85828601612445565b9150509250929050565b5f5f5f6060848603121561255b5761255a6122db565b5b5f612568868287016124f2565b9350506020612579868287016124f2565b925050604061258a86828701612445565b9150509250925092565b61259d81612426565b82525050565b5f6060820190506125b65f830186612594565b6125c36020830185612594565b6125d06040830184612594565b949350505050565b5f81519050919050565b5f82825260208201905092915050565b5f819050602082019050919050565b61260a81612426565b82525050565b5f61261b8383612601565b60208301905092915050565b5f602082019050919050565b5f61263d826125d8565b61264781856125e2565b9350612652836125f2565b805f5b838110156126825781516126698882612610565b975061267483612627565b925050600181019050612655565b5085935050505092915050565b5f6020820190508181035f8301526126a78184612633565b905092915050565b5f6020820190506126c25f830184612594565b92915050565b5f602082840312156126dd576126dc6122db565b5b5f6126ea848285016124f2565b91505092915050565b5f5f60408385031215612709576127086122db565b5b5f61271685828601612445565b925050602061272785828601612445565b9150509250929050565b61273a81612363565b8114612744575f5ffd5b50565b5f8135905061275581612731565b92915050565b5f5f60408385031215612771576127706122db565b5b5f61277e858286016124f2565b925050602061278f85828601612747565b9150509250929050565b5f6080820190508181035f8301526127b181876123ce565b90506127c06020830186612594565b6127cd6040830185612594565b6127da606083018461236e565b95945050505050565b5f5ffd5b5f5ffd5b7f4e487b71000000000000000000000000000000000000000000000000000000005f52604160045260245ffd5b612821826123be565b810181811067ffffffffffffffff821117156128405761283f6127eb565b5b80604052505050565b5f6128526122d2565b905061285e8282612818565b919050565b5f67ffffffffffffffff82111561287d5761287c6127eb565b5b612886826123be565b9050602081019050919050565b828183375f83830152505050565b5f6128b36128ae84612863565b612849565b9050828152602081018484840111156128cf576128ce6127e7565b5b6128da848285612893565b509392505050565b5f82601f8301126128f6576128f56127e3565b5b81356129068482602086016128a1565b91505092915050565b5f5f5f5f60808587031215612927576129266122db565b5b5f612934878288016124f2565b9450506020612945878288016124f2565b935050604061295687828801612445565b925050606085013567ffffffffffffffff811115612977576129766122df565b5b612983878288016128e2565b91505092959194509250565b5f5f604083850312156129a5576129a46122db565b5b5f6129b2858286016124f2565b92505060206129c3858286016124f2565b9150509250929050565b5f67ffffffffffffffff8211156129e7576129e66127eb565b5b6129f0826123be565b9050602081019050919050565b5f612a0f612a0a846129cd565b612849565b905082815260208101848484011115612a2b57612a2a6127e7565b5b612a36848285612893565b509392505050565b5f82601f830112612a5257612a516127e3565b5b8135612a628482602086016129fd565b91505092915050565b5f5f5f60608486031215612a8257612a816122db565b5b5f84013567ffffffffffffffff811115612a9f57612a9e6122df565b5b612aab86828701612a3e565b9350506020612abc86828701612445565b9250506040612acd86828701612445565b9150509250925092565b7f4e487b71000000000000000000000000000000000000000000000000000000005f52602260045260245ffd5b5f6002820490506001821680612b1b57607f821691505b602082108103612b2e57612b2d612ad7565b5b50919050565b5f606082019050612b475f8301866124b4565b612b546020830185612594565b612b6160408301846124b4565b949350505050565b7f4e6f2068617920666f6e646f73000000000000000000000000000000000000005f82015250565b5f612b9d600d836123a0565b9150612ba882612b69565b602082019050919050565b5f6020820190508181035f830152612bca81612b91565b9050919050565b7f4e487b71000000000000000000000000000000000000000000000000000000005f52603260045260245ffd5b7f4e487b71000000000000000000000000000000000000000000000000000000005f52601160045260245ffd5b5f612c3582612426565b91507fffffffffffffffffffffffffffffffffffffffffffffffffffffffffffffffff8203612c6757612c66612bfe565b5b600182019050919050565b5f612c7c82612426565b9150612c8783612426565b9250828202612c9581612426565b91508282048414831517612cac57612cab612bfe565b5b5092915050565b5f612cbd82612426565b9150612cc883612426565b9250828201905080821115612ce057612cdf612bfe565b5b92915050565b7f506c616e206e6f20646973706f6e69626c6500000000000000000000000000005f82015250565b5f612d1a6012836123a0565b9150612d2582612ce6565b602082019050919050565b5f6020820190508181035f830152612d4781612d0e565b9050919050565b7f45544820696e737566696369656e7465000000000000000000000000000000005f82015250565b5f612d826010836123a0565b9150612d8d82612d4e565b602082019050919050565b5f6020820190508181035f830152612daf81612d76565b9050919050565b5f81905092915050565b5f612dca82612396565b612dd48185612db6565b9350612de48185602086016123b0565b80840191505092915050565b5f612dfb8285612dc0565b9150612e078284612dc0565b91508190509392505050565b5f819050815f5260205f209050919050565b5f6020601f8301049050919050565b5f82821b905092915050565b5f60088302612e6f7fffffffffffffffffffffffffffffffffffffffffffffffffffffffffffffffff82612e34565b612e798683612e34565b95508019841693508086168417925050509392505050565b5f819050919050565b5f612eb4612eaf612eaa84612426565b612e91565b612426565b9050919050565b5f819050919050565b612ecd83612e9a565b612ee1612ed982612ebb565b848454612e40565b825550505050565b5f5f905090565b612ef8612ee9565b612f03818484612ec4565b505050565b5b81811015612f2657612f1b5f82612ef0565b600181019050612f09565b5050565b601f821115612f6b57612f3c81612e13565b612f4584612e25565b81016020851015612f54578190505b612f68612f6085612e25565b830182612f08565b50505b505050565b5f82821c905092915050565b5f612f8b5f1984600802612f70565b1980831691505092915050565b5f612fa38383612f7c565b9150826002028217905092915050565b612fbc82612396565b67ffffffffffffffff811115612fd557612fd46127eb565b5b612fdf8254612b04565b612fea828285612f2a565b5f60209050601f83116001811461301b575f8415613009578287015190505b6130138582612f98565b86555061307a565b601f19841661302986612e13565b5f5b828110156130505784890151825560018201915060208501945060208101905061302b565b8683101561306d5784890151613069601f891682612f7c565b8355505b6001600288020188555050505b505050505050565b5f81519050919050565b5f82825260208201905092915050565b5f6130a682613082565b6130b0818561308c565b93506130c08185602086016123b0565b6130c9816123be565b840191505092915050565b5f6080820190506130e75f8301876124b4565b6130f460208301866124b4565b6131016040830185612594565b8181036060830152613113818461309c565b905095945050505050565b5f8151905061312c8161230e565b92915050565b5f60208284031215613147576131466122db565b5b5f6131548482850161311e565b91505092915050565b7f4e487b71000000000000000000000000000000000000000000000000000000005f52601260045260245ffd5b5f60408201905061319d5f8301856124b4565b6131aa6020830184612594565b939250505056fea2646970667358221220154be8745a514122b42a46acad4e7a6da20771253eb5540a103ed17292e6b12964736f6c634300081c0033",
  "linkReferences": {},
  "deployedLinkReferences": {},
  "immutableReferences": {},
  "inputSourceName": "project/contracts/MembershipNFT.sol",
  "buildInfoId": "solc-0_8_28-cda85e11ac2ee87246ae8efec6c6af149c6ff98c"
}